:1000000012308A00F72A0000FF00030E8301A100CE
:100010000A08A0008A010408A2007708A300780853
:10002000A4007908A5007A08A600831383128B1E0A
:100030001B280B1932288C308400001C21280C1836
:100040003528220884002308F7002408F800250832
:10005000F9002608FA0020088A00210E8300FF0E0E
:100060007F0E09008A110A12072C8A110A12EC2944
:100070000A108A100A11820728340F34013406341A
:100080000A108A100A11820744346F346D34003428
:100090000A108A100A118207533465346734003419
:1000A0000A108A100A1182075434653472340034FD
:1000B0000A108A100A1182075134753461340034F1
:1000C0000A108A100A1182075134753469340034D9
:1000D0000A108A100A1182075334653478340034C8
:1000E0000A108A100A1182075334613462340034D2
:1000F0000C006B007A007C1020102010CC3A673482
:1001000020102010203E00017C1020102010CC3444
:10011000673474102010203E0001A0294527C12417
:1001200020000C000C00A0214F29A026C128202966
:10013000452A2029442700000C00CD37E437201041
:10014000201031103210331034100001CD30EE3A4F
:100150006136201035103610371038100000251881
:10016000322CBA123019581D2518322C2010A539FE
:1001700020102010201020100A002518322CAE125A
:10018000301958172518322C20102010201020105C
:100190002010201020000C002518322CBA12301923
:1001A000581D2518322C2010A539201020102010A1
:1001B00020100A002518322CAE12301958172518B5
:1001C000322C201020102010201020102010200091
:1001D00020104236F532F4376F3A681D20102000A7
:1001E0002010C337EE32633A61326F1020102000C6
:1001F00020104236F532F4376F3A681D2010201077
:1002000020002010C432F3316F37E531F430E43789
:10021000201020000C0020102010A0264927552A6D
:100220004F103A000C002010201020244F294110BC
:100230003A000C002022C92020224110D322CD20D8
:10024000CE203A000C00201020102010C424411DA4
:1002500000010C00201020102010CD22531D0001A1
:100260000C0020102010201041274F1D00010C0011
:10027000A0266F326F104937F63272376F10201098
:100280000001A0183810E13920183610E837F23094
:10029000731000000C00A0266F326F10D632F230BF
:1002A0006F1020102010000120193010E1392018A3
:1002B0003710E837F230731000000C00A0266F32C0
:1002C0006F10D0306439E137201020100001201960
:1002D0003310E13920183710E837F230731000007E
:1002E0000C00A0266F326F104937F63272376F104C
:1002F0000001A0183810E13920183610E837F23024
:10030000731000000C0020294F27C42020274F2AFB
:100310005529CE203A10000120102010CC24C720EF
:10032000C427201020102010000120102010C4220B
:100330005326C92341224F10201000000C00A02199
:100340006F37E634E73AF230721D00012029653636
:10035000EF33E937201020000C00A0216F37E6347E
:10036000E73AF230721D000120296F37E430202770
:100370006F3A7539EE3000000C00A0216F37E6347B
:10038000E73AF230E3306F1000003808493A0319B9
:10039000D929063A0319DC291F3A0319DF29113A32
:1003A0000319E229123A0319E529103A0319E82939
:1003B000EB292030AB06EB294030AB06EB2980302F
:1003C000AB06EB290130AC06EB290230AC06EB2979
:1003D0000130B700EB2908004008033C0318332A1A
:1003E00000308C1A0130013C031DFA298C1EF629BD
:1003F0001A08B8003808513A0319112A063A0319A5
:10040000182A123A03191D2A173A0319222A063A02
:100410000319252A0D3A0319282A0C3A03192B2A05
:100420002F2A0830AB061030AB062030AB062F2A3F
:100430004030AB068030AB062F2A0430AB060130CB
:10044000AC062F2A0230AC062F2A0430AB062F2A26
:100450000830AB062F2A1030AB062F2AC521312ACF
:10046000F029C521C001C00A8F0183308E000C1015
:100470008A110A12212800302B190130FB000317C2
:100480008D017B088C0083168C130C1583120313CB
:100490000B08F7008B138316031755308D00AA3015
:1004A0008D008C148C18522A0C11770883120313B8
:1004B0008B040030AB190130FB00013003178D00B5
:1004C0007B088C0083168C130C15831203130B0806
:1004D000F7008B138316031755308D00AA308D005B
:1004E0008C148C18712A0C117708831203138B0457
:1004F00000302B1A0130FB00023003178D007B08FF
:100500008C0083168C130C15831203130B08F70051
:100510008B138316031755308D00AA308D008C1471
:100520008C18902A0C117708831203138B04003067
:10053000AB1A0130FB00033003178D007B088C00E1
:1005400083168C130C15831203130B08F7008B13FF
:100550008316031755308D00AA308D008C148C182B
:10056000AF2A0C117708831203138B0400302B1B66
:100570000130FB00043003178D007B088C008316CC
:100580008C130C15831203130B08F7008B138316BF
:10059000031755308D00AA308D008C148C18CE2A8C
:1005A0000C117708831203138B040030AB1B01304E
:1005B000FB00053003178D007B088C0083168C131D
:1005C0000C15831203130B08F7008B138316031704
:1005D00055308D00AA308D008C148C18ED2A0C112A
:1005E0007708831203138B0400302C180130FB00B2
:1005F000063003178D007B088C0083168C130C15B6
:10060000831203130B08F7008B138316031755305F
:100610008D00AA308D008C148C180C2B0C117708CF
:10062000831203138B040030AC180130FB00073039
:1006300003178D007B088C0083168C130C15831216
:1006400003130B08F7008B138316031755308D0027
:10065000AA308D008C148C182B2B0C117708831268
:1006600003138B040030AE180130FB000A3003176F
:100670008D007B088C0083168C130C1583120313DA
:100680000B08F7008B138316031755308D00AA3023
:100690008D008C148C184A2B0C11770883120313CD
:1006A0008B04080003178D0183168C130C1483121E
:1006B0000C08F80003132B1178182B1501300317C1
:1006C0008D0083168C130C1483120C08F80003138E
:1006D000AB117818AB15023003178D0083168C13FD
:1006E0000C1483120C08F80003132B1278182B1625
:1006F000033003178D0083168C130C1483120C081F
:10070000F8000313AB127818AB16043003178D00F2
:1007100083168C130C1483120C08F80003132B138C
:1007200078182B17053003178D0083168C130C14C3
:1007300083120C08F8000313AB137818AB170630BC
:1007400003178D0083168C130C1483120C08F80009
:1007500003132C1078182C14073003178D00831600
:100760008C130C1483120C08F8000313AC107818C7
:10077000AC140A3003178D0083168C130C148312EB
:100780000C08F8000313AE107818AE142B19CA2BFE
:100790008613CB2B8617831686138312AB19D22BA5
:1007A0000613D32B06178316061383122B1ADA2B84
:1007B0008612DB2B8616831686128312AB1AE22B67
:1007C0000612E32B06168316061283122B1BEA2B46
:1007D0008611EB2B8615831686118312AB1BF22B29
:1007E0000611F32B06158316061183122C18FA2B0B
:1007F0008610FB2B8614831686108312AC18022CED
:100800000610032C061483160610831208004108F4
:10081000133C03183F2C3B225223AE1C3E2CAE1D32
:10082000202C3B08173C0318192C3B08233C0318C9
:100830001D2C3B08053C031C1F2CAC14202CAC10B9
:100840002E1D312C3B081F3C03182A2C3B08233C4F
:1008500003182E2C3B08063C031C302CAC14312C06
:10086000AC102E1E3E2C3B08233C03193B2C3B08AE
:10087000063C031C3D2CAC143E2CAC10C101C10A3B
:10088000833081000B118A110A1221286C308400F8
:10089000831300080319592C0230F800F701F70BF5
:1008A0004F2CF80B4E2C9730F700F70B552C800B84
:1008B0004C2C08008316081183120811F008031D40
:1008C000632C0811642C0815831608114230F700B8
:1008D000F70B682C0000881183128811710EF2004A
:1008E0000F30F2057208F3007318782C0812792C77
:1008F000081683160812F318812C83128812832C91
:100900008316831288168316881273198B2C831210
:1009100008138D2C83168312081783160813F319F6
:10092000952C83128813972C8316831288178316AD
:1009300088138811831288158316881183128811F1
:1009400071080F39F2007208F3007318A92C08120D
:10095000AA2C081683160812F318B22C83128812D8
:10096000B42C831683128816831688127319BC2C34
:1009700083120813BE2C83168312081783160813DC
:10098000F319C62C83128813C82C83168312881778
:100990008316881388118312881583168811831291
:1009A000881108006D0BD52CD82C4030EE00D92CC6
:1009B000EE0101306C02EE076E088038EF00F001A6
:1009C0006F08F1005A2408006B080C3A0319F82C40
:1009D000063A0319002D073A0319002D053A0319A9
:1009E000062D633A03190B2D113A0319152D1F2DEE
:1009F000F0010130F1005A240230EC004624252D8C
:100A00000130EC000230ED00D224252DF001103031
:100A1000F1005A24252DF0010E30F1005A2418302F
:100A2000F700F70B112D0000252DF0010C30F1001F
:100A30005A241830F700F70B1B2D0000252D01302C
:100A4000F0006B08F1005A24252D080083160317C7
:100A50008C170C140000000083120C087F39031956
:100A60006A2D0313E80003170D080313E9000317A9
:100A70000F080313EA006808EB00E4246908031771
:100A80008D0003136A0803178F0083168C170C144C
:100A90000000000083120C0D0E0D7F3903196A2D22
:100AA0000313E80003170D080313E90003170F08E9
:100AB0000313EA006808EB00E424690803178D00BB
:100AC00003136A0803178F008D0A03198F0A031393
:100AD000262D031703130800831608128312081229
:100AE0008316881283128812831608138312081340
:100AF0008316881383128813831608118312081132
:100B000083168811831288110F30EC0046240130BF
:100B1000E7006708033C031CC02D0330F300731883
:100B2000932D0812942D081683160812F3189C2D85
:100B3000831288129E2D83168312881683168812BC
:100B40007319A62D83120813A82D83168312081774
:100B500083160813F319B02D83128813B22D831650
:100B600083128817831688138811831288158316B9
:100B70008811831288110530EC004624E70A892D7C
:100B80000230F3007318C62D0812C72D08168316FD
:100B90000812F318CF2D83128812D12D83168312D9
:100BA0008816831688127319D92D83120813DB2D2A
:100BB00083168312081783160813F319E32D831283
:100BC0008813E52D831683128817831688138811DE
:100BD000831288158316881183128811E70167082C
:100BE000033C031CFC2D67083820E800F00168086E
:100BF000F1005A24E70AEF2DFA30EC004624783051
:100C000003178D0000308F0003132625FA30EC0007
:100C10004624793003178D0000308F0003132625FA
:100C20007A3003178D0000308F00031326258316BA
:100C3000891083128914A81228088316870083124A
:100C400087120430E700FA30EC004624E70B232E2D
:100C5000A81228088316870083128716B7018A1105
:100C60000A167C2BE701670DF700F70DF70DF8303A
:100C7000F7057708403EE800F0016808F1005A24C3
:100C8000C2014208073C031C522E5B30420784001D
:100C900083130008E7000130F0006708F1005A24D0
:100CA000C20A412E0130E700670DF700F70DF70D7E
:100CB000F830F7057708403EE800F0016808F100D9
:100CC0005A24C2014208073C031C732E43304207DA
:100CD000840083130008E7000130F0006708F1008A
:100CE0005A24C20A622E0230E700670DF700F70DA2
:100CF000F70DF830F7057708403EE800F001680886
:100D0000F1005A24C2014208073C031C942E4B30C8
:100D10004207840083130008E7000130F0006708F1
:100D2000F1005A24C20A832E0330E700670DF70052
:100D3000F70DF70DF830F7057708403EE800F001B1
:100D40006808F1005A24C2014208073C031CB52E72
:100D500053304207840083130008E7000130F0009D
:100D60006708F1005A24C20AA42E8A110A167F2BA2
:100D70000130F0006808F1005A2408000130EC004E
:100D8000ED00D2247B3003178D0000308F00031359
:100D900026250230E800FA30EC004624E80BCB2E82
:100DA0000130EC000230ED00D224843003178D00B6
:100DB00000308F00031326250830E800FA30EC00DD
:100DC0004624E80BDE2EE7016708103C031CFE2ECC
:100DD0006708EC000130ED00D224E801B82632307B
:100DE000EC0046246708EC000230ED00D224E80154
:100DF000B8263230EC004624E70AE42E0530EC0039
:100E00000130ED00D2248D3003178D0000308F00AB
:100E1000031326250830E800FA30EC004624E80BDE
:100E20000C2F913003178D0000308F0003132625FF
:100E30008A110A16822B83160108C03905388100F1
:100E4000833083128100B53090008F0183308E0093
:100E500083160C1483128B16C0308B048A110A1669
:100E6000882BAA1D542F831685148312851C3D2FB1
:100E700029183C2FB50A29143E2F29108316051571
:100E80008312051D482FA918472FB503A914492F10
:100E9000A91030083502031C4F2F0130B500B508EA
:100EA000031D542F0530B5008A110A168E2B2B1DF9
:100EB000622F0A30EC000130ED00D2240130E8004E
:100EC000B8266A2F0A30EC000130ED00D22402303F
:100ED000E800B826AB1D752F0C30EC000130ED009A
:100EE000D2240130E800B8267D2F0C30EC00013010
:100EF000ED00D2240230E800B8262B1E882F0E30D9
:100F0000EC000130ED00D2240130E800B826902F2B
:100F10000E30EC000130ED00D2240230E800B8269B
:100F2000AB1E9B2F1030EC000130ED00D2240130BD
:100F3000E800B826A32F1030EC000130ED00D224D9
:100F40000230E800B82608002B1FAF2F0A30EC0053
:100F50000230ED00D2240130E800B826B72F0A3065
:100F6000EC000230ED00D2240230E800B826AB1FBE
:100F7000C22F0C30EC000230ED00D2240130E8002A
:100F8000B826CA2F0C30EC000230ED00D22402301B
:100F9000E800B8262C1CD52F0E30EC000230ED00F6
:100FA000D2240130E800B826DD2F0E30EC000230EC
:100FB000ED00D2240230E800B826AC1CE82F103037
:100FC000EC000230ED00D2240130E800B826F02F0A
:100FD0001030EC000230ED00D2240230E800B826D8
:020FE000080007
:10100000291A1B282916923003178D0000308F00F3
:101010008A11031326258A150130EC00ED008A1190
:10102000D2248A15933003178D0000308F008A1167
:10103000031326258A15A911A912291383168515CC
:101040008312851D2B28A91B2A28A9170430AB065B
:101050000130AC062C28A913831605168312051E31
:101060003B282A183A282A140830AB061030AB0661
:101070002030AB063C282A10831685168312851E65
:101080004928AA184828AA144030AB068030AB067D
:101090004A28AA10AE185828831609148312091C6E
:1010A00057282A1956282A150230AC0658282A1122
:1010B00000302B190130E80000302C180130680492
:1010C000031964282B152C140030AB190130E800EB
:1010D00000302B1A01306804E9000030AB1A0130EF
:1010E000690403197628AB152B16AB1600302B1BA1
:1010F0000130E8000030AB1B01306804031982287E
:101100002B17AB172B1D9C282C1C9C280230EC00A5
:10111000ED008A11D2248A152030EB008A11E424D4
:101120008A154F30EB008A11E4248A154E30EB000B
:101130008A11E4248A15B1280230EC00ED008A11EE
:10114000D2248A154F30EB008A11E4248A154630E8
:10115000EB008A11E4248A154630EB008A11E4245E
:101160008A15AB1DCE282B1ECE28AB1ECE280630EE
:10117000EC000230ED008A11D2248A152030EB00F9
:101180008A11E4248A154F30EB008A11E4248A1571
:101190004E30EB008A11E4248A15E4280630EC0076
:1011A0000230ED008A11D2248A154F30EB008A11EB
:1011B000E4248A154630EB008A11E4248A1546306F
:1011C000EB008A11E4248A152B1FFF28AB1FFF2890
:1011D0000A30EC000230ED008A11D2248A1520304A
:1011E000EB008A11E4248A154F30EB008A11E424C5
:1011F0008A154E30EB008A11E4248A1515290A302D
:10120000EC000230ED008A11D2248A154F30EB0039
:101210008A11E4248A154630EB008A11E4248A15E9
:101220004630EB008A11E4248A15AC1C2E290E30BE
:10123000EC000230ED008A11D2248A152030EB0038
:101240008A11E4248A154F30EB008A11E4248A15B0
:101250004E30EB008A11E4248A1544290E30EC004C
:101260000230ED008A11D2248A154F30EB008A112A
:10127000E4248A154630EB008A11E4248A154630AE
:10128000EB008A11E4248A158A110A16B22BA919D7
:101290007229A9159C3003178D0000308F008A1128
:1012A000031326258A150130EC00ED008A11D224A3
:1012B0008A159D3003178D0000308F008A110313AB
:1012C00026258A150130EC000230ED008A11D22467
:1012D0008A15A63003178D0000308F008A11031382
:1012E00026258A152912A9122913AA152A12AA1627
:1012F000AA1E8B29831605148312051C842929191B
:101300008329B30A2915852929112F083302031CC3
:101310008B290130B3003308013A03199329033AAA
:101320000319F029512AAA16AA152A12330BEF29FC
:101330000730EC000230ED008A11D2248A152030EB
:10134000EB008A11E4248A150730EC000130ED002F
:101350008A11D2248A150330E8008A11B8268A152A
:10136000831685158312851DBB292C19BA292C15C6
:101370000430AB06BC292C11831605168312051EFA
:10138000C729AC19C629AC150830AB06C829AC1161
:10139000831685168312851ED3292C1AD2292C1662
:1013A0001030AB06D4292C12831609148312091CA1
:1013B000DF29AC1ADE29AC162030AB06E029AC12CE
:1013C0008A1157278A158A11A4278A15A7018B1B12
:1013D000A7178B138A113B228A15A71B8B17512A3B
:1013E000AA16AA152A123308023C031D502A0730F8
:1013F000EC000130ED008A11D2248A152030EB0078
:101400008A11E4248A150730EC000230ED008A11BD
:10141000D2248A150330E8008A11B8268A1583166B
:1014200085158312851D1A2A2C1B192A2C1740306A
:10143000AB061B2A2C13831605168312051E262ABB
:10144000AC1B252AAC178030AB06272AAC138316B9
:1014500085168312851E322A2D18312A2D1401304B
:10146000AC06332A2D10AE18412A831609148312B4
:10147000091C402A2A193F2A2A150230AC06412AA3
:101480002A118A1157278A158A11A4278A15A701BC
:101490008B1BA7178B138A113B228A15A71B8B174F
:1014A000512A8A110A16B22BE81B682A0F30F7005E
:1014B000670EF7050A3077020318612A3030F70704
:1014C000632A6808F7077708EB008A11E4248A1575
:1014D0000F30E7050A3067020318702A3030722A8D
:1014E000E8136808E7076708EB008A11E4248A1507
:1014F0000800831603178C170C1400000000031853
:10150000AA2A83120C087F390313E80003170D0879
:101510000313E90003170F080313EA006808EB0040
:101520008A11E4248A15690803178D0003136A08D9
:1015300003178F0083168C170C1400000000831211
:101540000313E70BA42AA72A83160317AA2ACB2A78
:101550008316031783120C0D0E0D7F390313E80059
:1015600003170D080313E90003170F080313EA001C
:101570006808EB008A11E4248A15690803178D00B6
:1015800003136A0803178F008D0A03198F0A0310CB
:101590000313E70B792A08000830F80000008711D0
:1015A000A81128088316870000008312E70D071290
:1015B000031CE02A2816280883168700E42A8312D1
:1015C000281228088316870000008312A81528080F
:1015D000831687008312871DEB2AF80BCE2A0000A2
:1015E0008711A81128088316870000008312281687
:1015F000280883168700000000008312A815280819
:10160000831687008312871D032BF8010000071A39
:1016100078148711A81128088316870083120712EF
:101620002812280883168700831208000830E80073
:101630007708E9002816280883168700000083121F
:10164000A8152808831687008312871D252B071AE3
:101650000314071E0310F80D0000A81128088316B4
:10166000870083128711E80B1A2B28162808831687
:10167000870000008312071269080319442B2812FF
:1016800028088316870083120000A81528088316EF
:1016900087008312871D4A2B00008711A811280894
:1016A0008316870000008312071228122808831669
:1016B0008700831208002816280883168700000078
:1016C0008312A815280883168700000083120712CA
:1016D0002812280883168700000083128711A8119A
:1016E000280883168700D0308312E700CC22E70158
:1016F000CC22281628088316870000008312A8151C
:1017000028088316870000008312871D852B071287
:101710002812280883168700000083128711A81159
:10172000280883168700D1308312E700CC220130CD
:10173000F70016237808B9000130F700162378085F
:10174000BA00F70116237808BB0028122808831670
:10175000870000008312A8152808831687008312CB
:10176000871DB02B0000B42B000028162808831614
:1017700087000000831208002816280883168700B7
:1017800000008312A8152808831687000000831222
:101790000712281228088316870000008312871179
:1017A000A811280883168700D0308312E700CC22C6
:1017B0000330E700CC223F08E700CC22281228089B
:1017C0008316870000008312A81528088316870057
:1017D0008312871DE92B0000ED2B00002816280836
:1017E0008316870000008312080028162808831635
:1017F000870000008312A8152808831687000000C0
:10180000831207122812280883168700000083120B
:101810008711A811280883168700D0308312E700AB
:10182000CC220330E700CC22281628088316870034
:1018300000008312A8152808831687000000831271
:10184000871D202C07122812280883168700000005
:1018500083128711A811280883168700D1308312BC
:10186000E700CC22F70116237808BF0028122808C9
:101870008316870000008312A815280883168700A6
:101880008312871D412C0000452C000028162808D3
:1018900083168700000083123F08073C031CDD2CE1
:1018A00001303F02F93E0318DC2C073EE22CE70131
:1018B000E8016330840083136708840768088A118D
:1018C00040208A15800000380319692CE80AE70ACD
:1018D000592CDC2CE701E80163308400831367088E
:1018E000840768088A1148208A1580000038031987
:1018F0007C2CE80AE70A6C2CDC2CE701E801633059
:10190000840083136708840768088A1150208A15A9
:101910008000003803198F2CE80AE70A7F2CDC2CA2
:10192000E701E801633084008313670884076808CF
:101930008A1158208A15800000380319A22CE80A61
:10194000E70A922CDC2CE701E80163308400831362
:101950006708840768088A1160208A1580000038AB
:101960000319B52CE80AE70AA52CDC2CE701E801ED
:101970006330840083136708840768088A1168202D
:101980008A15800000380319C82CE80AE70AB82C29
:10199000DC2CE701E80163308400831367088407C7
:1019A00068088A1170208A15800000380319DB2C22
:1019B000E80AE70ACB2CDC2CDF2CBF01BC238A15FC
:1019C0000A12DF2D0A108A100A158207572C6A2C7A
:1019D0007D2C902CA32CB62CC92CAA152A12AA1245
:1019E000291B6C2D2917CB3003178D0000308F0079
:1019F0008A11031326258A150130EC00ED008A11A7
:101A0000D2248A153B08E7003730E80054223A30E8
:101A1000EB008A11E4248A153A08E7003730E80021
:101A200054223A30EB008A11E4248A153908E70081
:101A30003730E80054222030EB008A11E4248A1564
:101A40002030EB008A11E4248A156330840083136C
:101A5000800803193F2DE8010408E7006810831B84
:101A600068140008EB008A11E4248A1567088400D2
:101A7000831368188317840A0319850A282DD53023
:101A800003178D0000308F00031009300313E700A7
:101A900079223C08E7003730E80054222E30EB0072
:101AA0008A11E4248A153D08E7003730E800542203
:101AB0002E30EB008A11E4248A153E08E700373007
:101AC000E8005422E13003178D0000308F0003102E
:101AD0000D300313E7007922A9112912A912AA15C2
:101AE0002A12AA128316851483128518542E83167F
:101AF000051583120519542E5B2328162808831612
:101B0000870000008312A8152808831687000000AC
:101B100083120712281228088316870000008312F8
:101B20008711A811280883168700D0308312E70098
:101B3000CC220430E700CC22281628088316870020
:101B400000008312A815280883168700000083125E
:101B5000871DA82D07122812280883168700000069
:101B600083128711A811280883168700D1308312A9
:101B7000E700CC220130F70016237808BC000130C2
:101B8000F70016237808BD00F70116237808BE0079
:101B9000281228088316870000008312A815280839
:101BA000831687008312871DD32D0000D72D0000D8
:101BB000281628088316870000008312F52B0130B1
:101BC000EC00ED008A11D2248A153B08E70037307B
:101BD000E80054223A30EB008A11E4248A153A08CE
:101BE000E7003730E80054223A30EB008A11E42451
:101BF0008A153908E7003730E80054222030EB001E
:101C00008A11E4248A152030EB008A11E4248A1515
:101C100063308400831380080319222EE80104082E
:101C2000E7006810831B68140008EB008A11E424A5
:101C30008A1567088400831368188317840A0319B8
:101C4000850A0B2EB83003178D0000308F0003106B
:101C500009300313E70079223C08E7003730E80039
:101C600054222E30EB008A11E4248A153D08E70047
:101C70003730E80054222E30EB008A11E4248A1514
:101C80003E08E7003730E8005422C43003178D00C7
:101C900000308F0003100D300313E7007922C830A5
:101CA000EC008A1146248A158A110A16B22BAA154D
:101CB0002A12AA12A9112912A9122913AA152A1245
:101CC000AA121430EC000330ED008A11D2248A15D8
:101CD0003808433A031D762E1430EC000330ED0033
:101CE0008A11D2248A150130B700762E370B982E30
:101CF0000130EC00ED008A11D2248A15E830031778
:101D00008D0000308F008A11031326258A150130BB
:101D1000EC000230ED008A11D2248A15F03003174E
:101D20008D0000308F008A11031326258A15BA2EE4
:101D3000B708031DBA2E0130EC00ED008A11D22441
:101D40008A15F83003178D0000308F008A110313B5
:101D500026258A150130EC000230ED008A11D224CC
:101D60008A15013003178D0001308F008A1103138B
:101D700026258A158A110A16B22B8316051483129A
:101D8000051CAB102A1EF32E831685148312851CA6
:101D9000CE2E2918CD2EB60A2914CF2E291083163F
:101DA00005158312051DD92EA918D82EB603A9141E
:101DB000DA2EA910831605148312051CE72EAB1822
:101DC000E72E2919E62E0130B2002915E82E291137
:101DD00031083602031CEE2E0130B600B608031D92
:101DE000F32E0230B600080078086708E900643076
:101DF000EA006A08F80169020318012F6908F70070
:101E00000D2FF7010830EB00E90DF70D6A08770296
:101E10000318F700F80DEB0B042F7708E70078089C
:101E20003030031D1A2FE81C232FE819232F681ABE
:101E300020301D2FE81168126814F8077808EB00AD
:101E40008A11E4248A156708E9000A30EA006A0862
:101E5000F801690203182F2F6908F7003B2FF701DB
:101E60000830EB00E90DF70D6A0877020318F70058
:101E7000F80DEB0B322F7708E70078083030031DA0
:101E8000472FE8194D2F681C4D2F681A2030F8078E
:101E90007808EB008A11E4248A153030E7076708D8
:101EA000EB008A11E4248A150800281628088316F6
:101EB000870000008312A8152808831687000000F9
:101EC0008312071228122808831687000000831245
:101ED0008711A811280883168700D0308312E700E5
:101EE000CC22E701CC223908E700CC223A08E700EF
:101EF000CC223B08E700CC22281228088316870052
:101F000000008312A8152808831687008312871DF6
:101F1000872F00008B2F00002816280883168700C3
:061F20000000831208001E
:10200000193003178D0001308F000A1203132625A3
:102010000A160130BF00E701E80163308400831332
:102020006708840768080A1240200A1680000038F2
:1020300003191D28E80AE70A0D280130EC00ED001D
:102040000A12D2240A161A3003178D0001308F00AD
:102050000A12031326250A160730EC000230ED00A1
:102060000A12D2240A1663308400831380080319ED
:102070004D28E8010408E7006810831B6814000875
:10208000EB000A12E4240A16670884008313681818
:102090008317840A0319850A36283230EC000A12A5
:1020A00046240A16AD1FDF2983160514831205186E
:1020B000DF29831685148312851C1B293F08063CE3
:1020C000031C1A29BF0A01303F02F93E0318EF280A
:1020D000073EE229E701E8016330840083136708C3
:1020E000840768080A1240200A1680000038031985
:1020F0007C28E80AE70A6C28EF28E701E80163304A
:10210000840083136708840768080A1248200A16A7
:102110008000003803198F28E80AE70A7F28EF2893
:10212000E701E801633084008313670884076808C7
:102130000A1250200A16800000380319A228E80A63
:10214000E70A9228EF28E701E8016330840083134F
:102150006708840768080A1258200A1680000038A9
:102160000319B528E80AE70AA528EF28E701E801DE
:102170006330840083136708840768080A126020AC
:102180000A16800000380319C828E80AE70AB828A8
:10219000EF28E701E80163308400831367088407B0
:1021A00068080A1268200A16800000380319DB2824
:1021B000E80AE70ACB28EF28E701E801633084004A
:1021C00083136708840768080A1270200A168000C3
:1021D00000380319EE28E80AE70ADE28EF2807305E
:1021E000EC000230ED000A12D2240A16633084009B
:1021F0008313800803191029E8010408E700681018
:10220000831B68140008EB000A12E4240A1667080E
:102210008400831368188317840A0319850AF92830
:102220000230E7009630EC000A1246240A16E70B4B
:1022300012291B29BF01831605158312051DDE29EE
:102240003F08003C0318DC29BF0301303F02F93E80
:102250000318B129073EED29E701E8016330840046
:1022600083136708840768080A1240200A16800052
:10227000003803193E29E80AE70A2E29B129E701A7
:10228000E8016330840083136708840768080A1232
:1022900048200A168000003803195129E80AE70A85
:1022A0004129B129E701E8016330840083136708FD
:1022B000840768080A1250200A16800000380319A3
:1022C0006429E80AE70A5429B129E701E8016330E3
:1022D000840083136708840768080A1258200A16C6
:1022E0008000003803197729E80AE70A6729B1292D
:1022F000E701E801633084008313670884076808F6
:102300000A1260200A168000003803198A29E80A98
:10231000E70A7A29B129E701E801633084008313D1
:102320006708840768080A1268200A1680000038C7
:1023300003199D29E80AE70A8D29B129E701E80177
:102340006330840083136708840768080A127020CA
:102350000A16800000380319B029E80AE70AA02904
:10236000B1290730EC000230ED000A12D2240A161F
:1023700063308400831380080319D229E80104081C
:10238000E7006810831B68140008EB000A12E424BD
:102390000A1667088400831368188317840A0319D0
:1023A000850ABB290230E7009630EC000A12462469
:1023B0000A16E70BD429DE290830BF0054288A15F5
:1023C0000A16F1290A148A100A1182076A287D2840
:1023D0009028A328B628C928DC280A148A100A11D4
:1023E00082072C293F295229652978298B299E2982
:1023F000EB016708EA008E30F7006B08F8006A0806
:10240000F900FA01F808031D0F2A7908F800F9010C
:102410000830F702F808031D0F2AF701172A0310E6
:10242000F81B162AF90DF80DF7030F2AF813CD3013
:10243000ED00CC30EC004C30EB007B30EA007A0849
:10244000F1007908F0007808EF007708EE006A08DC
:102450000319972AF2006E080319972AF207031846
:10246000382A7F30F202031C972A0319972A3C2A44
:102470008130F2070318972A7208F700F801F90172
:10248000FA016B08F600F6176C08F5006D08F40009
:102490001830F200F301741C652A7108FA07031C56
:1024A000572AF90A031D572AF80A0319F317700867
:1024B000F907031C5E2AF80A0319F3176F08EC00EA
:1024C000EC176C08F8070318F317F30DF80CF90C68
:1024D000FA0CF60CF50CF40C0310F20B4A2A01303E
:1024E000F7070318972AF81B7C2AF60DFA0DF90D49
:1024F000F80DF7030319972AF61F8D2AFA0A031D10
:102500008D2AF90A031D8D2AF80A031D8D2AF80C5D
:10251000F90CFA0CF70A0319972A6B08F3006F08F5
:10252000F306F31F952AF8179B2AF8139B2AF70145
:10253000F801F901FA017A08ED007908EC00780851
:10254000EB007708EA008E30F7006A08F7026B08A4
:10255000F9006C08F800F917F7080319BA2A0310F4
:10256000F908031DB62AF8080319BA2AF90CF80C61
:10257000F70BAF2AEB1FC12AF809F909F80A03196A
:10258000F90A7808E8000A30EA006808EB00F70169
:10259000F8016A0803106B18F707F70CF80CEB1832
:1025A000F707F70CF80C6B19F707F70CF80CEB1999
:1025B000F707F70CF80C6B1AF707F70CF80CEB1A87
:1025C000F707F70CF80C6B1BF707F70CF80CEB1B75
:1025D000F707F70CF80C78086702E900E80EF0300E
:1025E000E80568086904E7006708F8000800840146
:1025F00083131F308305FF30A8000C308316990029
:10260000A23098009030831298002910A910291147
:10261000A9112912A9122913A9132A10AA102A11E3
:10262000AA112A12AA122A13AA132B10AB102B11CB
:10263000AB112B12AB122B13AB132C10AC102C11B3
:10264000AC112C12AC122C13AC132D10AD102D119B
:10265000AD112D12AD122D13AD132E10AE102E1183
:10266000AE112E12AE120330AF000630B0000330B0
:10267000B100B2010130B300B400B500B600B7013B
:10268000C001C101C2012E13AE1383161F149F1483
:102690001F159F1107309C001E308312C300C40019
:1026A000C500C600C700C801C901CA01CB0012306D
:1026B000CC00CD00CE001E30CF00D001D101D20120
:1026C000D3010430D4000230D5001F30D6000230D0
:1026D000D7000430D800D901DA011C30DB000E30FD
:1026E000DC000730DD000E30DE001C30DF00E001D2
:1026F000E101E2010A126C2D0A160A12322E0A16A4
:102700000A12BE2E0A160A1252230A160A121B2F8A
:102710000A16AA15AA122A120A12312F0A16013015
:102720003502FB3E0318B22B053EB42B0A128A1564
:1027300000280A168A11B22B0A128A1547290A168E
:102740008A11B22B0A128A15ED2C0A168A11B22BA5
:102750000A128A15572E0A168A11B22B8A150028DA
:102760008A11B22B892B63000A148A140A1182077A
:0A277000962B9C2BA22BA82BAE2B5E
:10300000AA152A12AA12A91A2428A916BC30031735
:103010008D0001308F000A128A11031326250A162B
:103020008A150130EC00ED000A128A11D2240A162A
:103030008A15BD3003178D0001308F000A128A11E6
:10304000031326250A168A15A911291229132B10F4
:10305000B2013508053C031DCE2E831605148312DC
:10306000051CCE2EB2010130B600AA130230E700D3
:103070009630EC000A128A1146240A168A15E70BCC
:103080003828AA11AA122A16AB1483160514831223
:10309000051CAB100A12BD260A163608013A0319A0
:1030A0005528033A0319B12CCC2EAA112A16AA12BC
:1030B0000A12BD260A16AA1B9028AA179E300317CB
:1030C0008D0001308F000A128A11031326250A167B
:1030D0008A150130EC00ED000A128A11D2240A167A
:1030E0008A159F3003178D0001308F000A128A1154
:1030F000031326250A168A150130EC000230ED0074
:103100000A128A11D2240A168A15A63003178D00D6
:1031100001308F000A128A11031326250A168A1518
:103120002A13AA112A16AA120130B600360BB02CA7
:10313000320BB02CB2012A12AA11AA122B185D2C44
:10314000AD18DF2BBA01BB010130BC00BD00BE01D0
:10315000AD102D15AD112D12AD122D13AD13023082
:10316000E700FA30EC000A128A1146240A168A1582
:10317000E70BB1280A3003178D0001308F000A12C7
:103180008A11031326250A168A150130EC00ED007A
:103190000A128A11D2240A168A150B3003178D00E1
:1031A00001308F000A128A11031326250A168A1588
:1031B0000730EC000230ED000A128A11D2240A1600
:1031C0008A153A08E7000130E8000A12F4260A16C8
:1031D0002D1D3F2983160514831205183F298316D8
:1031E00085148312851C16293A083B3C031C1529BB
:1031F000BA0A0730EC000230ED000A128A11D2241C
:103200000A168A153A08E7000130E8000A12F42687
:103210000A160230E7009630EC000A128A114624A2
:103220000A168A15E70B0B291629BA01831605150C
:103230008312051D3E293A08003C03183C29BA03B5
:103240000730EC000230ED000A128A11D2240A166F
:103250008A153A08E7000130E8000A12F4260A1637
:103260000230E7009630EC000A128A1146240A1652
:103270008A15E70B32293E293B30BA00EA28AD1007
:103280002D11AD152D12AD122D13AD130230E70027
:10329000FA30EC000A128A1146240A168A15E70B46
:1032A0004829123003178D0001308F000A128A114D
:1032B000031326250A168A150130EC00ED000A12C8
:1032C0008A11D2240A168A15133003178D00013093
:1032D0008F000A128A11031326250A168A15073051
:1032E000EC000230ED000A128A11D2240A168A1567
:1032F0003B08E7000130E8000A12F4260A163230D3
:10330000EC000A128A1146240A168A15AD1DDD2921
:103310008316051483120518DD298316851483127C
:10332000851CB4293B08163C031CB329BB0A073093
:10333000EC000230ED000A128A11D2240A168A1516
:103340003B08E7000130E8000A12F4260A160230B2
:10335000E7009630EC000A128A1146240A168A15F4
:10336000E70BA929B429BB01831605158312051D96
:10337000DC293B08003C0318DA29BB030730EC00CA
:103380000230ED000A128A11D2240A168A153B086F
:10339000E7000130E8000A12F4260A160230E700BE
:1033A0009630EC000A128A1146240A168A15E70B99
:1033B000D029DC291730BB008829AD102D11AD11A3
:1033C0002D12AD122D13AD170230E700FA30EC00CC
:1033D0000A128A1146240A168A15E70BE6298A1171
:1033E00000288A15AD102D11AD112D16AD122D131B
:1033F000AD130230E700FA30EC000A128A114624BD
:103400000A168A15E70BFB29223003178D000130BD
:103410008F000A128A11031326250A168A15013015
:10342000EC00ED000A128A11D2240A168A15233004
:1034300003178D0001308F000A128A11031326250D
:103440000A168A150730EC000230ED000A128A11C4
:10345000D2240A168A153C08E7000130E8000A1257
:10346000F4260A163230EC000A128A1146240A1693
:103470008A152D1E912A8316051483120518912A88
:10348000831685148312851C682A3C081E3C031C85
:10349000662ABC0A0730EC000230ED000A128A11DD
:1034A000D2240A168A153C08E7000130E8000A1207
:1034B000F4260A160230E7009630EC000A128A1150
:1034C00046240A168A15E70B5C2A682A0130BC00DC
:1034D000831605158312051D902A3C08003C03182D
:1034E0008E2ABC030730EC000230ED000A128A116C
:1034F000D2240A168A153C08E7000130E8000A12B7
:10350000F4260A160230E7009630EC000A128A11FF
:1035100046240A168A15E70B842A902A1F30BC001D
:103520003B2AAD102D11AD112D12AD162D13AD137B
:103530000230E700FA30EC000A128A1146240A161B
:103540008A15E70B9A2A293003178D0001308F0066
:103550000A128A11031326250A168A150130EC0077
:10356000ED000A128A11D2240A168A152A3003178E
:103570008D0001308F000A128A11031326250A16C6
:103580008A150730EC000230ED000A128A11D224AD
:103590000A168A153D08E7000130E8000A12F426F1
:1035A0000A163230EC000A128A1146240A168A15CD
:1035B000AD1E302B8316051483120518302B83168D
:1035C00085148312851C072B3D080B3C031C052B1F
:1035D000BD0A0730EC000230ED000A128A11D22435
:1035E0000A168A153D08E7000130E8000A12F426A1
:1035F0000A160230E7009630EC000A128A114624BF
:103600000A168A15E70BFB2A072B0130BD0083162B
:1036100005158312051D2F2B3D08003C03182D2B8B
:10362000BD030730EC000230ED000A128A11D224EB
:103630000A168A153D08E7000130E8000A12F42650
:103640000A160230E7009630EC000A128A1146246E
:103650000A168A15E70B232B2F2B0C30BD00DA2A14
:10366000AD102D11AD112D12AD122D17AD1302306D
:10367000E700FA30EC000A128A1146240A168A156D
:10368000E70B392B1130BE00303003178D000130AD
:103690008F000A128A11031326250A168A15013093
:1036A000EC00ED000A128A11D2240A168A15313074
:1036B00003178D0001308F000A128A11031326258B
:1036C0000A168A150730EC000230ED000A128A1142
:1036D000D2240A168A153230EB000A128A11E42429
:1036E0000A168A153030EB000A128A11E4240A16F1
:1036F0008A153E08E7000130E8000A12F4260A168F
:103700002D1FD82B8316051483120518D72B83166B
:1037100085148312851CAE2B3E08633C031CAD2B25
:10372000BE0A0930EC000230ED000A128A11D224E0
:103730000A168A153E08E7000130E8000A12F4264E
:103740000A160230E7009630EC000A128A1146246D
:103750000A168A15E70BA32BAE2BBE01831605159F
:103760008312051DD62B3E08003C0318D42BBE0344
:103770000930EC000230ED000A128A11D2240A1638
:103780008A153E08E7000130E8000A12F4260A16FE
:103790000230E7009630EC000A128A1146240A161D
:1037A0008A15E70BCA2BD62B6330BE00822BAD14D3
:1037B000AD142D11AD112D12AD122D13AD133A080C
:1037C000E7008A11F8218A157808BA003B08E7005B
:1037D0008A11F8218A157808BB003C08E7008A1195
:1037E000F8218A157808BC003D08E7008A11F82105
:1037F0008A157808BD003E08E7008A11F8218A156D
:103800007808BE000A1255270A16281628088316BB
:10381000870000008312A81528088316870000007F
:1038200083120712281228088316870000008312CB
:103830008711A811280883168700D0308312E7006B
:103840000A12CC220A160430E7000A12CC220A1609
:103850003C08E7000A12CC220A163D08E7000A12CB
:10386000CC220A163E08E7000A12CC220A162812B9
:1038700028088316870000008312A81528088316DD
:1038800087008312871D422C0000462C000028165A
:1038900028088316870000000A128312BC230A1628
:1038A000831605148312051C572CAD182B142B18E6
:1038B0005B2CAD1CA028AD10B2010A1255270A16C8
:1038C000281628088316870000008312A8152808E8
:1038D0008316870000008312071228122808831617
:1038E0008700000083128711A8112808831687001B
:1038F000D0308312E7000A12CC220A160430E70007
:103900000A12CC220A163C08E7000A12CC220A1638
:103910003D08E7000A12CC220A163E08E7000A1208
:10392000CC220A162812280883168700000083126A
:10393000A8152808831687008312871D9D2C000078
:10394000A12C0000281628088316870000000A1200
:103950008312BC230A160130B500AA152A12AA1236
:10396000CC2EAA112A16AA122A1BE92C2A17AC302F
:1039700003178D0001308F000A128A1103132625C8
:103980000A168A150130EC00ED000A128A11D224C1
:103990000A168A15AD3003178D0001308F000A1208
:1039A0008A11031326250A168A150130EC0002300D
:1039B000ED000A128A11D2240A168A15B4300317B0
:1039C0008D0001308F000A128A11031326250A1672
:1039D0008A15AA13AA112A16AA120230B6003608AE
:1039E000023C031DCB2E320BCB2EB201AA112A12A0
:1039F000AA122B18C32E2E1BAC2E2E13AE162E1071
:103A00000230E700FA30EC000A128A1146240A1646
:103A10008A15E70B022D703003178D0001308F00DF
:103A20000A128A11031326250A168A153230EC0071
:103A30000A128A1146240A168A150130B400713020
:103A400003178D0001308F000A128A1103132625F7
:103A50000A168A15793003178D0001308F000A127B
:103A60008A11031326250A168A15AE1E1D2E8316EB
:103A70000514831205181D2E3408013A0319472D29
:103A8000033A03197F2D013A0319B72DEF2DAE1913
:103A90007C2D373003178D0001308F000A128A11F8
:103AA000031326250A168A150130EC00ED000A12D0
:103AB0008A11D2240A168A15383003178D00013076
:103AC0008F000A128A11031326250A168A1501305F
:103AD000EC000230ED000A128A11D2240A168A156F
:103AE000413003178D0001308F000A128A11031331
:103AF00026250A168A15AE152E112E12EF2D2E1917
:103B0000B42D4A3003178D0001308F000A128A113C
:103B1000031326250A168A150130EC00ED000A125F
:103B20008A11D2240A168A154B3003178D000130F2
:103B30008F000A128A11031326250A168A150130EE
:103B4000EC000230ED000A128A11D2240A168A15FE
:103B5000543003178D0001308F000A128A110313AD
:103B600026250A168A152E15AE112E12EF2D2E1AA5
:103B7000EC2D5D3003178D0001308F000A128A1181
:103B8000031326250A168A150130EC00ED000A12EF
:103B90008A11D2240A168A155E3003178D0001306F
:103BA0008F000A128A11031326250A168A1501307E
:103BB000EC000230ED000A128A11D2240A168A158E
:103BC000673003178D0001308F000A128A1103132A
:103BD00026250A168A152E16AE112E11EF2D8316E4
:103BE00085148312851C002EB40A0230E70096303B
:103BF000EC000A128A1146240A168A15E70BF72DE3
:103C0000831605158312051D112EB4030230E7003B
:103C10009630EC000A128A1146240A168A15E70B20
:103C2000082E3408033C0318172E0130B400B408E2
:103C3000031D1C2E0330B400372D2E13AE122E148C
:103C40000230E700FA30EC000A128A1146240A1604
:103C50008A15E70B222E823003178D0001308F006A
:103C60000A128A11031326250A168A150130EC0060
:103C7000ED000A128A11D2240A168A15833003171E
:103C80008D0001308F000A128A11031326250A16AF
:103C90008A153230EC000A128A1146240A168A1557
:103CA0002E1CA92E8316051483120518A92E83161F
:103CB00085148312851C692E8030AE060230E70021
:103CC0009630EC000A128A1146240A168A15E70B70
:103CD000602E831605158312051D7B2E8030AE06DF
:103CE0000230E7009630EC000A128A1146240A16C8
:103CF0008A15E70B722EAE1F932EAE140130EC0026
:103D00000230ED000A128A11D2240A168A158C306C
:103D100003178D0001308F000A128A110313262524
:103D20000A168A15A82EAE100130EC000230ED0004
:103D30000A128A11D2240A168A15953003178D00AB
:103D400001308F000A128A11031326250A168A15DC
:103D5000522E2E172E10AE120A125B230A1683164D
:103D600005148312051CB62E2E1B2B142B18BA2EED
:103D70002E1FFB2C2E13B2013B08E7008A11F821FD
:103D80008A157808BB000A1255270A160130B500BB
:103D9000AA152A12AA12CC2E2B1C41288A110A1607
:023DA000B22B44
:02400E003A3F37
:00000001FF
;PIC16F877A
;CRC=E93A  CREATED="12-dez-17 16:23"
