:1000000000308A00B12900000A108A100A11820704
:1000100028340F34013406340A108A100A1182077A
:100020000C3400340A108A100A118207493448340B
:100030004D343A3420344B343134203420344B3472
:100040003234203420344B343334203400342330E1
:1000500084008313000803193A280230F800F701DE
:10006000F70B3028F80B2F289730F700F70B3628BE
:10007000800B2D2800342A183F2806124028061627
:10008000831606128312AA18472886124828861655
:100090008316861283122A194F2806135028061732
:1000A000831606138312AA19572886135828861711
:1000B0008316861386118312861583168611831282
:1000C000861100348316061183120611A708031D3A
:1000D0006B2806116C280615831606114230F700AE
:1000E000F70B70280000861183128611280EA900D4
:1000F0000F30A9052908AA003B2028080F39A900BC
:10010000AA003B200034240B862889284030A50013
:100110008A28A50101302302A50725088038A600FA
:10012000A7012608A8006220003422080C3A03190F
:10013000A328063A0319AB28073A0319AB28053A56
:100140000319B128B628A7010130A80062200230A7
:10015000A3002720BC280130A3000230A400832084
:10016000BC28A7011030A8006220BC280130A700DD
:100170002208A8006220BC280034831606128312CD
:1001800006128316861283128612831606138312B2
:1001900006138316861383128613831606118312A1
:1001A000061183168611831286110F30A3002720B3
:1001B0000130A1002108033C031CE6280330AA00FB
:1001C0003B200530A3002720A10ADA280230AA002C
:1001D0003B20A1012108033C031CF728210804202F
:1001E000A200A7012208A8006220A10AEA28FA308A
:1001F000A3002720A10121080C200038031904299D
:10020000A10AA2009520FB280130A300A4008320AE
:10021000A10121081220A10AF700A20095201030A8
:100220002102031D0929BE29831685148312851C0A
:1002300027292018262920140830A006A0192229D1
:1002400086102329861483168610831228292010ED
:10025000BF29831605158312051D3C29A0183B29CB
:10026000A0141030A006201A3729061038290614C9
:100270008316061083123D29A010C0298316851508
:100280008312851D5129A018502920152030A00661
:10029000A01A4C2905104D29051483160510831248
:1002A00052292011C129A01D64290530A300023064
:1002B000A40083202030A20095204F30A20095207A
:1002C0004E30A200952072290530A3000230A40010
:1002D00083204F30A20095204630A2009520463062
:1002E000A2009520201E83290930A3000230A4001B
:1002F00083202030A20095204F30A20095204E3060
:10030000A200952091290930A3000230A400832087
:100310004F30A20095204630A20095204630A20022
:100320009520A01EA2290D30A3000230A400832036
:100330002030A20095204F30A20095204E30A20020
:100340009520B0290D30A3000230A40083204F3047
:10035000A20095204630A20095204630A2009520AC
:10036000C229840183131F30830507309F002010AA
:10037000A0102011A0112012A012BD281429292993
:080380003E295329BE29630048
:02400E002A3F47
:00000001FF
;PIC16F628A
